:020000040800F2
:10000000D00600200D0200089B2D0008EB240008FC
:10001000992D0008F90800082936000800000000A2
:10002000000000000000000000000000C12D0008DA
:10003000FB08000800000000BF2D0008C32D0008C9
:1000400027020008270200082702000827020008EC
:1000500027020008270200082702000827020008DC
:1000600027020008270200082702000827020008CC
:1000700027020008270200082702000827020008BC
:100080002702000827020008B90700082702000815
:10009000270200082702000827020008270200089C
:1000A000270200082702000827020008270200088C
:1000B000270200082702000827020008270200087C
:1000C000270200082702000827020008270200086C
:1000D000270200082702000827020008270200085C
:1000E000270200082702000827020008270200084C
:1000F000270200082702000827020008270200083C
:100100002702000827020008B92E0008270200086D
:10011000270200082702000827020008270200081B
:10012000270200082702000827020008270200080B
:1001300027020008270200082702000827020008FB
:1001400027020008270200082702000827020008EB
:1001500027020008270200082702000827020008DB
:1001600027020008270200082702000827020008CB
:1001700027020008270200082702000800000000EC
:1001800027020008270200082702000827020008AB
:10019000270200082702000827020008270200089B
:1001A000270200082702000827020008270200088B
:1001B000270200082702000827020008270200087B
:1001C000270200082702000800000000270200089C
:1001D000270200082702000827020008270200085B
:1001E000270200082702000827020008270200084B
:1001F0002702000827020008DFF80CD000F05AFAA6
:10020000004800472D400008D006002006488047DF
:1002100006480047FEE7FEE7FEE7FEE7FEE7FEE7EB
:10022000FEE7FEE7FEE7FEE7652E0008F90100089D
:100230002DE9F05F0546002092469B46884606461B
:10024000814640241BE0284641464746224600F0AE
:1002500069F853465A46C01A914110D311461846C0
:10026000224600F050F82D1A67EB01084F4622464F
:100270000120002100F047F817EB00094E41201E35
:10028000A4F10104DFDC484631462A464346BDE876
:10029000F09F40EA01039B0703D009E008C9121F41
:1002A00008C0042AFAD203E011F8013B00F8013B30
:1002B000521EF9D27047D2B201E000F8012B491E5C
:1002C000FBD270470022F6E710B513460A460446F3
:1002D0001946FFF7F0FF204610BD30B50B4601462A
:1002E00000202022012409E021FA02F59D4205D3D5
:1002F00003FA02F5491B04FA02F52844151EA2F17F
:100300000102F1DC30BD202A04DB203A00FA02F1C0
:10031000002070479140C2F1200320FA03F31943F3
:1003200090407047202A04DB203A21FA02F0002195
:10033000704721FA02F3D040C2F1200291400843F5
:10034000194670472DE9FE4F804681EA0300C00F31
:100350000C46009021F0004123F00045B8EB02006C
:10036000A94105D24046214690461C460B4602460E
:1003700023F00040104347D0270DC7F30A00C3F312
:100380000A510290401A019040286BDAC3F313001F
:1003900040F4801B0098924620B10023D2EB030A60
:1003A00063EB0B0B01985946C0F140025046FFF732
:1003B000AAFF06460D4650465946019A00F08CF9B0
:1003C00010EB08006141002487EA115284EAE773C8
:1003D0001A4340D0009A62B3019A012A4FEA0752A9
:1003E00015DC001B61EB02014FF0004202EA0752EC
:1003F000CDE90042001C41F5801132462B4600F049
:100400008CF903B0BDE8F08F40462146F9E7001BA8
:1004100061EB0201001C41F5801300185B412018BC
:10042000A2F5001747EB030140EAD570B6196D41FC
:1004300011E06D084FEA360645EAC0754FEA0752EB
:10044000001B61EB0201001C41F5801149084FEAD5
:1004500030000019514132462B4603B0BDE8F04F41
:1004600000F04CB90098012240000023D0EB0202BA
:1004700063EBE073009821464FEAE074B8EB0000AC
:1004800061EB0401E9E783F000435BE781F00041A1
:1004900058E72DE9FE4F81EA030404F0004421F0FF
:1004A000004100944FF0000B23F0004350EA010498
:1004B0005ED052EA03045BD0C3F30A54C1F30A5579
:1004C0002C44A4F2F3340194A0FB0254C1F31301B1
:1004D00041F48011C3F3130343F4801301FB02447E
:1004E00000FB034E840A970A44EA815447EA835783
:1004F000A4FB076802958D0A05FB07854FEA932C3C
:1005000004FB0C542705029D4FEA065847EA1637AC
:10051000B5EB08056EEB070C870E920E47EA8117C4
:1005200042EA8312A7FB0201B6EB0B0164EB000465
:100530002B0D43EA0C335E1844EB1C50DA4651464F
:10054000E7FB0201C5F313044FEA0B3343EA1453EC
:100550004FEA0432019C43EA0603A4F10C0402941E
:10056000009CCDE900B400F0D8F803B0BDE8F08FEE
:1005700000200146F9E72DE9F04D81EA030404F07B
:10058000004B21F0004514464FF0000A23F00041D3
:1005900050EA050220D054EA01021DD0C5F30A57E3
:1005A0000246C5F31303C1F31300C1F30A5640F426
:1005B000801543F48013A7EB0608101BD64608F2FB
:1005C000FD3873EB050002D308F1010801E0921831
:1005D0005B41B8F1000F03DA00200146BDE8F08D61
:1005E00000204FF48011064684460EE0171B73EB83
:1005F000050705D3121B63EB050306434CEA010C08
:1006000049084FEA300092185B4150EA0107EDD1EA
:1006100052EA030012D082EA040083EA050108438B
:1006200005D0101BAB4106D20122002306E00022B8
:100630004FF0004302E06FF0010253101AEB060086
:100640004CEB085110EB0A0041EB0B01BDE8F04DFB
:1006500000F054B8C1F30A52C1F3130140F2FF3362
:1006600041F480119A4202DA00200146704740F2BC
:1006700033439A42A2F2334202DC5242FFF752BEA7
:10068000FFF741BE30B5041E71F1000404DB4FF0EA
:100690000044404264EB0101141E73F1000405DBC9
:1006A0001C464FF00043524263EB0403994208BFDB
:1006B000904230BD064C074D06E0E06840F0010373
:1006C00094E8070098471034AC42F6D3FFF798FD42
:1006D0006443000884430008202A06DBCB17203A35
:1006E00041FA02F043EAE07306E041FA02F3D04037
:1006F000C2F12002914008431946704710B5141EFC
:1007000073F1000408DA401C41F1000192185B41CA
:100710001A4301D120F0010010BD2DE9F04D9246A1
:100720009B4611B1B1FA81F202E0B0FA80F22032B8
:100730009046FFF7E8FD04460F4640EA0A0041EA0A
:100740000B0153465A46084313D0114653EA0100A1
:1007500019D0C8F140025046FFF7E4FD05460E46A9
:10076000504659464246FFF7CEFD084305D00120CA
:1007700004E020463946BDE8F08D0020054346EAF6
:10078000E0762C4337430A986305E40AA0EB08009F
:100790000022FD0A44EA47540A3002D500200146EF
:1007A000E9E7010510196941DDE9084500196941CA
:1007B000BDE8F04DA2E70000014800F090B900004C
:1007C000C000002049496FF0706210B5D1F80433C1
:1007D00023F44033C1F80433D1F80433446823438D
:1007E000C1F8043301684B6823F480734B600168DF
:1007F00003694C6844EA03234B6001684B6823F0AB
:1008000040734B60016884684B6823434B60016808
:100810008B6823F400638B600168C4688B68234392
:100820008B60816AD14201688A6822F070628A60B6
:1008300001680DD0836A8A681A438A6001688A68F1
:1008400022F040528A600168C36A8A681A4302E053
:100850008A6822F040528A6001688A6822F00202A7
:100860008A60016882698B6843EA42028A60016A91
:100870000029016811D01E4A4B6843F400634B60A5
:1008800001684B6823F460434B600168446A4B681D
:1008900002EB443213434B6003E04A6822F40062E7
:1008A0004A600168134BCA6A22F47002CA62016886
:1008B000848BCA6A03EB04531A43CA6201688A68CC
:1008C00022F400728A600168026B8B6843EA42225C
:1008D0008A6001688A6822F480628A6001684069DF
:1008E0008A6842EA8020886010BD00000020014034
:1008F00000E0FFFF0000F0FFFEE7704770470000D8
:1009000030B590F83C20012A2AD0012280F83C2002
:100910000A69012A0268536824D023F04003536017
:1009200002680023114D54682C40546002680D6821
:1009300054682C43546004684A68626204688A6898
:10094000A2620268546824F01F04546002688C8913
:100950005168A4B22143516080F83C30002030BD82
:10096000022030BD43F04003D9E70000FFFD3FFF08
:10097000F8B50025009590F83C20012A18D00122F6
:1009800080F83C200A6807234E4C0668092A1AD9C9
:100990000A3A02EB4207F268BB409A43F2600E68E3
:1009A0000268A64206D10B7AD66846EA036308E0DD
:1009B0000220F8BD0A3E8B68D76806EB4606B340B6
:1009C0003B43D3600EE002EB42073269BB409A43DF
:1009D000326103680E788A681F6906EB4606B240EA
:1009E0003A431A614A681F23072A13D20668521E27
:1009F00002EB8207726BBB409A43726303680E7905
:100A00000A88761E5F6B92B206EB8606B2403A43C6
:100A10005A6327E006680D2A12D2D21F02EB820722
:100A2000326BBB409A43326302680E790B88F61F23
:100A3000176B9BB206EB8606B3403B43136311E092
:100A40000D3A02EB8207F26ABB409A43F2620268F7
:100A50000E790B880D3ED76A9BB206EB8606B34033
:100A60003B43D362184A0368934208D10B68122BA8
:100A700005D1D2F8043343F48003C2F80433036889
:100A800093421AD10B68A34201D0112B15D1D2F891
:100A9000043343F40003C2F804330968A1420CD1C3
:100AA0000A490B4A0968B1FBF2F101EB81014900E7
:100AB00000E0491E00910029FBD180F83C50002045
:100AC000F8BD000012000010002001408C00002042
:100AD00040420F00704770470068C06C704770B5A7
:100AE0000446006801684268C1F34001C2F3401245
:100AF00051B34AB3216CC90603D4216C41F400718F
:100B00002164816811F0405F17D1A169A9B9C16A58
:100B100011F4700F02D0816849050ED4416821F0AC
:100B200020014160206C20F480702064206CC0049F
:100B300003D4206C40F0010020642046FFF7CAFF78
:100B400021686FF012000860206801684268C1F3F4
:100B50008001C2F3C01289B382B3216CC90603D4E9
:100B6000216C41F400512164816811F4401F1ED1B1
:100B7000816B11F4401F02D08168490517D4416888
:100B8000490514D4816811F0405F10D1A16971B991
:100B9000416821F080014160206C20F48050206485
:100BA000206CC00503D4206C40F001002064204676
:100BB000FFF7A4FE21686FF00C0008602068016850
:100BC000436811F0010FC3F380110ED069B10068C2
:100BD000C0070AD0206C40F480302064204600F02A
:100BE00047F821686FF001000860206801684268DA
:100BF000C1F340110029C2F380620DD0002A0BD04E
:100C0000616C6FF0200541F00201616405602046CF
:100C1000FFF761FF2068056070BD70B504004FF0FC
:100C2000000503D0206C002610B107E0012070BD44
:100C30006664204684F83C6000F046F8206CC006EC
:100C400010D4206C20F4885040F00200206420462C
:100C5000FFF7B8FD6664206C20F0020040F0010050
:100C6000206400E0012584F83C60284670BD000047
:100C700010B50068104988421CD1104C0120002298
:100C800040216081A089401CA0810D4800F007FA36
:100C90000C48642100F050F80A48FFF71DFFE0807F
:100CA000A089032806D1E089012801D102F0D4FAF5
:100CB0000020A08110BD000000200140680000203D
:100CC00000100240C000002010B586B00446142178
:100CD0006846FFF7F7FA15492068884223D114487F
:100CE000016841F480710160006800F48070059033
:100CF0000F481438016841F00101016000680321C8
:100D0000002200F00100059001208DE8070009484D
:100D1000694600F0CFF800221220114600F022FAB6
:100D2000122000F013FA06B010BD000000200140B0
:100D300044380240000002402DE9F04104460068BA
:100D40000D460027816849050BD58068C00508D588
:100D5000206C84F83C7040F0200020640120BDE845
:100D6000F08100F0A1F906460FE0681C0DD025B116
:100D700000F09AF9801BA84207D9206C84F83C70D7
:100D800040F0040020640320E9E720680068800741
:100D9000EBD521686FF012000860206C40F4007001
:100DA00020642068816811F0405F13D1A16989B97E
:100DB000C16A11F4700F02D0806840050AD4206C1B
:100DC00020F480702064206CC00403D4206C40F0B8
:100DD000010020640020C2E718B50022009290F8BC
:100DE0003C10012907D0012180F83C1001688B6874
:100DF000DB0702D011E0022018BD8C68214B44F0C3
:100E000001048C6020490968B1FBF3F101EB410159
:100E100000E0491E00910029FBD101688B68DB07C7
:100E20002DD0036C40F20164A34343F48073036448
:100E30004B685B0505D5036C23F4005343F48053E2
:100E40000364036CDB0404D5436C23F006034364A2
:100E500000E042646FF022040C4B80F83C200C60F0
:100E6000D3F804130068C90601D0984207D18168FD
:100E700011F0405F03D1816841F080418160002022
:100E800018BD000040420F008C00002000200140EF
:100E900070B5044600F008F90546601C02D004480D
:100EA0000078044400F000F9401BA042FAD370BD62
:100EB000800000202DE9F84FDFF89CE100224FF080
:100EC00001084FF0030B4FF00F0A00BF0B6808FA40
:100ED00002F42340A34271D14D68022D01D0122D9E
:100EE0000FD1D5080E69570700EB8505A9462D6A75
:100EF000FF0E0AFA07FCBE4025EA0C052E43C9F88E
:100F000020600F79550006680BFA05FC07F003070F
:100F100026EA0C06AF40374307604E68012E05D025
:100F2000022E03D0112E01D0122E0ED18668CF686A
:100F300026EA0C06AF403743876046680F79A64320
:100F4000C7F30017974037434760C4688E6824EAA8
:100F50000C04AE402643C6604C68E40075D53F4C97
:100F6000256845F480452560246822F0030695072E
:100F700004F4804400943A4C2D0F2644D6F80848D7
:100F8000DFF8E0C00AFA05F7604524EA070401D15A
:100F900000272EE0344FB84201D1012729E0334F1A
:100FA000B84201D1022724E0314FB84201D10327D2
:100FB0001FE0304FB84202D104271AE045E02E4F1F
:100FC000B84201D1052714E02C4FB84201D10627C1
:100FD0000FE02B4FB84201D107270AE0294FB84252
:100FE00001D1082705E0284FB84201D1092700E0C8
:100FF0000A27AF4027437546C6F808784E68DEF8E2
:101000000040F60324EA030400D51C43124E2C6072
:10101000361D4D683468AD0324EA030400D51C4333
:101020000D4F346008374D683C68ED0224EA030434
:1010300000D51C43084D3C600C354E682C68B60248
:1010400024EA030400D51C432C60521C102AFFF430
:101050003DAFBDE8F88F0000003C0140443802403D
:10106000003001400000024000040240000802403D
:10107000000C024000100240001402400018024020
:10108000001C024000200240002402400069084089
:1010900000D00120704742694A40426170470AB15E
:1010A000816170470904FBE70148806870470000D0
:1010B00080000020024881680278114481607047F6
:1010C00080000020032010B500F06CF8002000F034
:1010D00005F800F023F8002010BD000070B50D4D9C
:1010E00004464FF47A700C4A29781268B0FBF1F08C
:1010F000B2FBF0F000F0E0FD48B9102C07D200225E
:101100002146501E00F02EF800206C6070BD0120BA
:1011100070BD0000800000208C0000200A4808B547
:10112000016841F080510160006800F0805000903B
:101130000548001D016841F480410160006800F429
:101140008040009008BD000040380240410900F096
:101150001F028900012001F1E0219040C1F8000147
:10116000704700000E4BF0B41B680D46C3F302231A
:10117000C3F10706042E00D90426191D072901D240
:10118000002300E0DB1E012404FA06F19C40491E06
:101190002940641E994014402143F0BC01F0FEBD7B
:1011A0000CED00E0064900F0070210B54FF6FF0411
:1011B0000868044B204040EA02201843086010BD34
:1011C0000CED00E00000FA051848F8B5016841F0A0
:1011D000805101600068164C00F08050009020683B
:1011E00040F480302060FFF75FFF4FF47A760546C9
:1011F00005E000BFFFF758FF401BB0420FD8606802
:10120000C003F7D5206840F400302060FFF74CFFA2
:10121000054606E0FFF748FF401BB04201D9032016
:10122000F8BD60688003F5D50020F8BD4038024065
:10123000007000402DE9F84F04460078DFF8249450
:101240004FF000063746C0070ED0D9F8001021F441
:101250000001C9F80010D9F80010626B1143C9F8F9
:101260000010606B00B90126FE4D20688435000334
:101270000ED5E16B286820F4401008432860E06B2D
:10128000B0F5801F01D010B102E0012600E0012777
:1012900020684FF4800BC0020CD5216C286820F424
:1012A000400008432860206C584501D1012601E028
:1012B00000B901272068C10100D50126800666D546
:1012C000E8483830016841F0805101600068DFF87B
:1012D00098A300F080500090DAF8001041F480717B
:1012E000CAF80010FFF7E0FE804605E0FFF7DCFEDD
:1012F000A0EB080064287DD8DAF80000C005F5D519
:10130000DFF8608308F16808D8F8000010F4407036
:101310002AD0218E01F44071814225D0D8F80010E6
:10132000D8F8002021F4407142F48032C8F800203F
:10133000D8F8002022F48032C8F80020C8F8001045
:10134000D8F80000C0070FD0FFF7AEFE824607E0D6
:10135000FFF7AAFEA0EB0A0141F288308142CAD809
:10136000D8F800008007F3D5206BC0F301210329D2
:101370007ED0D9F8001021F4F811C9F80010228E9F
:10138000D8F80010C2F30B021143C8F800102078FF
:10139000C00607D5286820F0807028602868A16BF7
:1013A000084328602188AF488830490405D5626E1B
:1013B000016821F44031114301602188090405D5F9
:1013C000A26E016821F44021114301602168C90324
:1013D00005D5E26E016821F44011114301602168D6
:1013E000890305D5226F016821F440011143016092
:1013F000217800E034E1490605D5626C016821F0EE
:101400000301114301602178090605D5A26C01682A
:1014100021F00C01114301602188C90505D5E26C5A
:10142000016821F03001114301602188890505D54B
:10143000226D016821F0C001114301602188490536
:1014400005D5626D016821F4407111430160218866
:10145000090505D5A26D016821F4406111430160C1
:101460002188C90407D5E26D016821F4405100E0EC
:101470005FE0114301602188890405D5226E01686F
:1014800021F44041114301602168490205D5A26F52
:10149000016821F080611143016021684FF0006A0A
:1014A000890209D5E26F016821F0006111430160F2
:1014B000E16F514500D1012721680A0700D50127B6
:1014C000490305D5626F016821F040711143016045
:1014D0002168090206D5D4F88020016821F08051E6
:1014E000114301602168490106D5D4F884200168C0
:1014F00021F00051114301602068000106D5D4F8A5
:101500008810286820F00070084328602068C00018
:1015100006D5D4F88C10286820F080600843286035
:10152000DFF84891012E0ED02068B0F1007F0AD07C
:101530008FE04F4AD9F80030104023F4F8120243EC
:10154000C9F800201BE7D9F800004E4620F0806063
:10155000C9F80000FFF7A8FD804605E0FFF7A4FDED
:10156000A0EB080064287BD830680001F6D421780D
:101570003C487C30C90712D0616B81B9237A62681C
:101580000168D0F800C09201C1F3014142EA014272
:10159000CCF3036142EA016141EA03710160216811
:1015A0000A0303D5E26BB2F5801F04D0C9021AD535
:1015B000216C594517D16368016894F80CC0026822
:1015C0009B01C1F3014143EA0141C2F3027241EAC6
:1015D0000C6141EA027101602968626A21F01F0111
:1015E000521E114329602168C90110D5238A6268FF
:1015F0000168D0F800C09201C1F3036142EA0342DE
:1016000042EA0162CCF3027142EA01710160216891
:1016100089010CD56168228A237B94F808C089016E
:1016200041EA024141EA036141EA0C71016031681B
:10163000B04641F080613160FFF736FD064604E0B8
:10164000FFF732FD801B64280AD8D8F8000000019B
:10165000F6D5E7B3D9F800004E4620F0805009E0F7
:101660007BE0000008380240007000400038024073
:10167000FFFCFF0FC9F80000FFF716FD074604E066
:10168000FFF712FDC01B642867D83068C043800094
:10169000F6D5216835480A0301D5E26B1AB1C902B3
:1016A0001DD5216CD9B963690168277E02689B0149
:1016B000C1F3014143EA0143C2F3027143EA076205
:1016C00042EA0171016029686FF0FF0300E04BE01E
:1016D000A26A21F4F85103EB022211432960216828
:1016E000890212D5E16F51450FD1238C62690168DF
:1016F00007689201C1F3036142EA034242EA0162D0
:10170000C7F3027142EA017101602178090716D519
:1017100061690268D0F800C08B01277FC2F30362C1
:10172000CCF3014143EA014141EA026141EA077118
:1017300001602868E16A20F440300843286030687E
:1017400040F080503060FFF7AFFC044608E000BF77
:10175000FFF7AAFC001B642802D90320BDE8F88F1C
:101760003068C0438000F3D40020F7E78838024097
:101770002DE9F04705000F4663D0444E306800F075
:101780000F00B84209D2306820F00F0038433060B3
:10179000306800F00F00B84253D128683C4C8107F4
:1017A00012D5400703D5206840F4E0502060287827
:1017B000000703D5206840F460402060A9682068D5
:1017C00020F0F000084320602878C0072AD0304974
:1017D00068680839012810D00968022810D08907E4
:1017E00000292EDA216821F0030101432160FFF76F
:1017F0005BFC804641F288390DE009688903EFE718
:101800008901EDE7FFF750FCA0EB0801494502D93B
:101810000320BDE8F0876868216801F00C01B1EB96
:10182000800FEFD1306800F00F00B8420BD930685C
:1018300020F00F0038433060306800F00F00B842ED
:1018400001D00120E5E72878400705D5E968206840
:1018500020F4E050084320602878000706D5286966
:10186000216821F4604141EAC000206000F056F890
:101870002168084AC1F30311515CC8400649086059
:101880000020FFF72BFC0020C3E70000003C0240D3
:10189000083802400C4300088C0000200D4A0F233A
:1018A00030B503604FF4E0540B4B156805F00305A9
:1018B0004560156805F0F0058560156805F4E0558C
:1018C000C560126804EAD2020261186800F00F00D5
:1018D000086030BD08380240003C02400449054819
:1018E00009680068044AC1F38221515CC84070470E
:1018F000083802408C0000201C43000804490548B9
:1019000009680068044AC1F34231515CC84070471D
:10191000083802408C0000201C430008154910B50F
:101920001548096811F00C0213D04110042A0FD099
:10193000082A0ED10F4C241F2268236802F03F02B0
:101940005B0207D52068C0F38810A0FB010106E008
:10195000084610BD2168C1F38811A1FB00010023D6
:10196000FEF766FC2168C1F30141491C4900B0FB48
:10197000F1F010BD083802400024F4002DE9F84FC2
:1019800005004FF000076ED02878DFF82093A9F10A
:10199000040AC007AAF104044CD0D9F80010484644
:1019A000C1F38101012908D00068C0F38100022839
:1019B0000AD1DAF80000400206D52068800339D544
:1019C00068680028DFD035E06868B0F5803F0BD04C
:1019D00010B1B0F5A02F11D0206820F48030206025
:1019E000206820F4802002E0206840F480302060ED
:1019F000686890B1FFF758FB06460AE0206840F49B
:101A000080202060F0E700BFFFF74EFB801B6428BA
:101A100072D820688003F7D50CE0FFF745FB064637
:101A200005E000BFFFF740FB801B6428F0D820686A
:101A30008003F7D42878800742D5D9F800104846AB
:101A400011F00C0F08D00068C0F3810002280BD100
:101A5000DAF80000400207D42068800718D5E8684B
:101A6000012800D114E01EE1E8680028206817D0A2
:101A700040F001002060FFF717FB064605E000BFBD
:101A8000FFF712FB801B0228C2D820688007F7D519
:101A90002869216821F0F80141EAC00020600FE0C8
:101AA00020F001002060FFF7FFFA064605E000BFC6
:101AB000FFF7FAFA801B02281ED820688007F7D4A7
:101AC0002878000729D5794869696C300029804653
:101AD000016812D041F001010160FFF7E5FA064606
:101AE00005E000BFFFF7E0FA801B022804D8D8F811
:101AF00000008007F6D510E089E021F001010160C7
:101B0000FFF7D2FA064604E0FFF7CEFA801B022860
:101B10007DD8D8F800008007F6D4287840076BD528
:101B2000DFF8888108F13808D8F80000C0000BD42D
:101B3000D8F8001041F08051C8F80010D8F8000023
:101B4000012700F08050009059480168C90512D45F
:101B50000168834641F480710160FFF7A5FA0646EB
:101B600005E000BFFFF7A0FA801B64284FD8DBF820
:101B70000000C005F6D54D4EA868683601280AD089
:101B800008B1052811D0306820F0010030603068BD
:101B900020F0040002E0306840F001003060A868E6
:101BA000A0B1FFF781FA83460CE0306840F00400F2
:101BB0003060F0E7FFF778FAA0EB0B0141F28830D4
:101BC000814268D830688007F4D50EE0FFF76CFAE0
:101BD000834607E0FFF768FAA0EB0B0141F288307B
:101BE000814258D830688007F4D42FB1D8F800105B
:101BF00021F08051C8F80010A869E0B3D9F80010AE
:101C0000C1F3810102294ED00228206800E042E0A1
:101C100020F08070206003D0FFF746FA05463DE0D3
:101C2000FFF742FA064604E0FFF73EFA801B02285F
:101C300031D820688001F7D4D5E90921DFF874C0D4
:101C4000D5E9070695F830304F0895F82C10304349
:101C50000CEB074545EA8212104340EA016040EA76
:101C60000370CAF80000206840F080702060FFF721
:101C70001BFA054605E014E0FFF716FA401B0228A0
:101C800009D820688001F7D50BE000BFFFF70CFAF8
:101C9000401B022802D90320BDE8F88F206880018C
:101CA000F4D40020F8E70120F6E7000008380240ED
:101CB000007000400000FFFF401EB0F1807F10B5B3
:101CC00001D3012010BD4FF0E02460610F216017A7
:101CD00001F064F80020A0610721216110BD704768
:101CE0007047000070B590F83C20012A1FD00122F7
:101CF00080F83C2002680F4C5368A242956802D0DD
:101D00000D4CA24203D14C6823F4700323430C68AA
:101D10008968002623F070031C43546025F0800579
:101D200002682943916080F83C60304670BD022013
:101D300070BD0000000001400004014010B5040027
:101D400003D094F83D0010B107E0012010BD002041
:101D500084F83C00204600F00DF8022084F83D0095
:101D60002068211D01F0AEF8012084F83D0000201C
:101D700010BD000008B501681648B1F1804F0BD0C6
:101D8000154A914210D1016841F0040101600068D8
:101D900000F00400009008BD016841F001010160FD
:101DA000006800F00100F5E70C4A9142F3D10168A8
:101DB00041F00801016000680022114600F00800AF
:101DC00000903220FFF7CEF9BDE808403220FFF73F
:101DD000BDB900004038024000080040000C00403F
:101DE00070B5044690F83C00012817D03A4E012502
:101DF00084F83C50022084F83D002268906830400E
:101E000020F47F4090600868502839D00DDC2028ED
:101E10005BD005DC98B3102843D153E0022070BD9D
:101E2000302855D040283CD141E0602830D070287F
:101E30000CD0B0F5805F03D0B0F5005F31D112E077
:101E40002068254A70328168114016E04A6820688F
:101E5000D1E9021301F0A7F821688868304040F00A
:101E6000770088601DE04A682068D1E9021301F01C
:101E70009AF82068816841F48041816011E01EE099
:101E8000CA684968206801F0C3F92068502106E05B
:101E9000CA684968206801F0CCF92068602101F027
:101EA0008BF8002084F83D5084F83C0070BDCA686F
:101EB0004968206801F0ACF920684021EFE720680C
:101EC0000021ECE720681021E9E720682021E6E7FF
:101ED00020683021E3E7000088FFFEFF704770B5FF
:101EE0000446006800250169C943890715D4C16803
:101EF000C943890711D4EA1E0261012121772068B4
:101F000080698007204602D0FFF7E8FF04E000F078
:101F1000E5F8204600F093F9257720680169C94368
:101F2000490717D4C168C943490713D402216FF088
:101F30000402026121772068806910F4407F204606
:101F400002D0FFF7CBFF04E000F0C8F8204600F015
:101F500076F9257720680169C943090716D4C16855
:101F6000C943090712D404216FF0080202612177E6
:101F70002068C0698007204602D0FFF7AFFF04E069
:101F800000F0ACF8204600F05AF925772068016986
:101F9000C943C90617D4C168C943C90613D4082167
:101FA0006FF01002026121772068C06910F4407F51
:101FB000204602D0FFF792FF04E000F08FF82046A1
:101FC00000F03DF9257720680169C943C90708D1A8
:101FD000C168C943C90704D1891E0161204600F0C8
:101FE0004BF920686FF080050169C943090607D4E1
:101FF000C168C943090603D405612046FFF76FFE97
:1020000020680169C943C90507D4C168C9430906E5
:1020100003D405612046FFF762FE20680169C943C9
:10202000490609D4C168C943490605D46FF0400187
:102030000161204600F021F920680169C943890641
:102040000BD4C168C943890607D46FF02001016130
:102050002046BDE87040FFF743BE70BD10B586B0A6
:10206000044614216846FEF72DF92368002017491D
:102070000222B3F1804F17D0154CA34212D10B6846
:1020800043F008030B60096801F008010591D102D3
:102090000091CDE90120CDE903020E48694600BF59
:1020A000FEF708FF06B010BD0B6843F001030B609C
:1020B000096801F001010591202100910123694681
:1020C000CDE90120CDE903030348E9E730380240B8
:1020D00000080040000C024000000240704770B54C
:1020E000044690F83C000D4601280ED0012684F8E5
:1020F0003C60022084F83D000C2A45D007DC5AB130
:10210000042A1BD0082A78D12CE0022070BD102AA6
:102110004ED0142A71D15DE0206800F055FF206890
:10212000816941F0080181612068816921F0040121
:10213000816120682A698169114311E0206800F0FB
:1021400077FF2068816941F40061816120688169BD
:1021500021F48061816120682969826942EA012154
:1021600081614AE0206800F099FF2068C16941F070
:102170000801C1612068C16921F00401C1612068C2
:102180002A69C169114311E0206800F0BDFF206891
:10219000C16941F40061C1612068C16921F48061B5
:1021A000C16120682969C26942EA0121C16124E054
:1021B000206800F0D5FF2068416D41F008014165BD
:1021C0002068416D21F00401416520682A69416D54
:1021D000114311E0206800F0EFFF2068416D41F4E9
:1021E000006141652068416D21F48061416520688E
:1021F0002969426D42EA01214165002084F83D6071
:1022000084F83C0070BD10B5040003D094F83D0084
:1022100010B107E0012010BD002084F83C002046EA
:1022200000F00CF8022084F83D002068211D00F029
:1022300049FE012084F83D00002010BD7047704722
:1022400010B501220446006800F0A2FE084920688B
:10225000884202D00749884203D1416C41F40041D1
:1022600041642068016841F001010160002010BD57
:1022700000000140000401407047704710B50400A1
:1022800003D094F8690010B107E0012010BD0020D0
:1022900084F86800204600F027F8242084F86900BC
:1022A0002068016821F001010160204601F05EF81C
:1022B0000128EBD0606A10B1204600F0D3FF2068FF
:1022C000416821F4904141602068816821F02A0131
:1022D00081602068016841F0010101602046BDE88D
:1022E000104001F023B8000010B586B00446142158
:1022F0006846FDF7E7FF1249206888421DD1114862
:10230000016841F020010160006800F020000590A4
:102310000C481438016841F0040101600068022192
:10232000002200F004000590C020032308248DE85B
:102330001F0005486946FEF7BDFD06B010BD000050
:102340000014014044380240000802402DE9F84FD3
:10235000044690F86A009A4616460D46202867D132
:10236000EDB1E6B194F86800012861D000270121A1
:1023700084F868102220E76684F86A004C34FEF77F
:1023800093FE814654F8440CA6814FF48058E681B0
:10239000FF214C3C404508D1206918B10EE00120D6
:1023A000BDE8F88F40F2FF100EE04FF07F0218B149
:1023B000B0F1805F05D009E0206950B9A4F85C1045
:1023C00004E0206928B13F20A4F85C00B4F85C6008
:1023D0001CE0A4F85C20F9E7B4F85A00401EA4F809
:1023E0005A0000224B4620212046CDF800A001F0E3
:1023F000E9F808B10320D3E7A068404501D120697E
:1024000078B12068406A304005F8010BB4F85A00F2
:102410000028E1D1202084F86A00002084F8687048
:10242000BEE721682846AD1C496A31400180EDE7CE
:102430000220B5E72DE9F843044690F869001F46ED
:1024400016460D4620284ED1C5B1BEB194F868009D
:10245000012848D0012284F8682021214FF000088B
:10246000C4F86C8084F869105034FEF71DFE268095
:1024700081466680503C4FF4805619E00120BDE84B
:10248000F88300BFB4F85200401EA4F852000022A6
:102490004B4680212046009701F094F8A0B9A0682F
:1024A000B04201D1206988B115F8010B216888621A
:1024B000B4F852000028E5D100224B4640212046C6
:1024C000009701F07FF838B10320D8E735F8020B08
:1024D0002168C0F30800EAE7202184F86910002091
:1024E00084F86880CBE70220C9E7FEE7274A01218C
:1024F00070B50B46147855789678D27801FA04F4C2
:1025000001FA05F503FA02F3214A01FA06F1B0B126
:1025100001281DD002282CD003280FD1D06946688D
:102520009E43466010694368234343605069436893
:102530002B434360906942680A43426070BD106952
:102540004668A6434660506944682C43446007E0EF
:1025500050694668AE43466010694568254345604A
:10256000906944680C434460D069416819434160F4
:1025700070BD906946688E4346601069416821438A
:1025800041605069416829434160EDE70000002047
:10259000900000201049002070B5104A0D8D4C8D20
:1025A0008B8DC98D25FA00F6F60700D0107024FA3D
:1025B00000F6F60700D0507023FA00F6F60700D0B8
:1025C000907021FA00F6F60700D0D070401CC0B21F
:1025D0001028E7D370BD000090000020000000200C
:1025E000014951F8200070470400002070B53022E6
:1025F00001461C48FDF74DFEFFF7CCFF194C0120AA
:10260000194922690D78536800FA05F52B43536088
:1026100062694D78536800FA05F52B435360A2694F
:102620008D78536800FA05F52B435360E269CB7847
:102630005168984001435160218D01222069FEF7C5
:102640002EFD618D01226069FEF729FDA18D012219
:10265000A069FEF724FDE18D0122E069BDE870402C
:10266000FEF71DBD900000200000002070B504465C
:102670000020FFF73BFF3D4D298C2868FEF706FD43
:1026800000B101202070698C6868FEF7FFFC00B182
:1026900001202071A98CA868FEF7F8FC00B1012088
:1026A0002072E98CE868FEF7F1FC00B1012020738C
:1026B0000120FFF71BFF298C2868FEF7E7FC00B11B
:1026C00001206070698C6868FEF7E0FC00B10120B1
:1026D0006071A98CA868FEF7D9FC00B10120607276
:1026E000E98CE868FEF7D2FC00B10120607302209B
:1026F000FFF7FCFE298C2868FEF7C8FC00B101201A
:10270000A070698C6868FEF7C1FC00B10120A0715F
:10271000A98CA868FEF7BAFC00B10120A072E98C70
:10272000E868FEF7B3FC00B10120A0730320FFF7B7
:10273000DDFE298C2868FEF7A9FC00B10120E070BD
:10274000698C6868FEF7A2FC00B10120E071A98CD9
:10275000A868FEF79BFC00B10120E072E98CE868F4
:10276000FEF794FC00B10120E07370BD90000020E2
:102770002DE9F04106AC94E8E0101E4CA061A18068
:10278000E280236225826682A782A4F816C000F048
:1027900055F8022121702820A0701420FEF778FB44
:1027A000032000F04BF90520FEF772FB032000F038
:1027B00045F90120FEF76CFB032000F03FF90120F2
:1027C000FEF766FB022000F039F90120FEF760FBFE
:1027D0000F2000F057F9012000F054F90320FEF714
:1027E00057FB282000F04EF9BDE8F0410320FEF72A
:1027F0004FBB00004400002010B5094C0122E188C5
:10280000A069FEF74CFC0A2000F066F8E18800227F
:10281000A069FEF744FCBDE810403C2000F05CB825
:1028200044000020044A00289188906901D00122C8
:1028300000E00022FEF733BC44000020F0B587B072
:1028400005A96846FFF72AF80398C0B3FFF746F8D2
:1028500040001D4A13681D4900EE100A43F00203B0
:1028600013600868B8EE400B9FED191B20F01000B4
:10287000086020EE010B0868144B20F0010008608E
:1028800028330868092420F004020A601D1DBCEEEC
:10289000C00B012610EE100A0F680C4A47F008071B
:1028A0000F60103202F1040C401E18602C60CCF84E
:1028B0000060106820F00100106007B0F0BDFFE775
:1028C000FFF70CF8C5E70000403802400004004064
:1028D0008DEDB5A0F7C6B03E094A09491C32401E2D
:1028E00010600A68064822F001020A601038026887
:1028F00042F0010202600868C007FCD07047000087
:1029000010040040012010B500F0BCF8BDE81040F4
:102910000320FEF7BDBA70B50024064609E0012089
:10292000FFF780FF284600F017F8641CE4B2102C73
:1029300002D2355D002DF2D170BD0000491E012884
:1029400001F00F0004D040F0C00000BF00F09AB8C2
:1029500040F08000FAE700002DE9F84F364C0209FC
:1029600002F00801009100F0080902F0040B217840
:1029700002F0020A02F00107012900F0040600F04B
:10298000020500F001082FD0022952D1218A3A46CF
:10299000206AFEF784FB618A5246206AFEF77FFBBD
:1029A000A18A5A46206AFEF77AFBE18A009A206AD9
:1029B000FEF775FBFFF720FF218A4246206AFEF7EB
:1029C0006EFB618A2A46206AFEF769FBA18A3246BD
:1029D000206AFEF764FB4A46E18A206AFEF75FFB45
:1029E000BDE8F84FFFF708BF21894246E069FEF7CE
:1029F00056FB61892A46E069FEF751FBA189324600
:102A0000E069FEF74CFBE1894A46E069FEF747FBC7
:102A1000218A3A46206AFEF742FB618A5246206AC2
:102A2000FEF73DFBA18A5A46206AFEF738FB009A62
:102A3000D2E7BDE8F88F00004400002070B50546DD
:102A40000020FFF7EFFE0E4C05F00102218A206AFC
:102A5000FEF725FB618A05F00202206AFEF71FFBE4
:102A6000A18A05F00402206AFEF719FBE18A05F04D
:102A70000802206AFEF713FBBDE87040FFF7BCBEFA
:102A80004400002010B504460020FFF7CBFE20468E
:102A9000BDE81040FFF760BF30B58BB01821684625
:102AA000FDF710FC16480024144B4FF480320694B6
:102AB00001250794089409940360C0E90124046186
:102AC000856110490462C0E90A14C460C5614561AA
:102AD0000463FEF7A2F80C48BE218DE813000848F5
:102AE0006946CDE90345FDF70BFF054806A9CDE989
:102AF00006450894FDF73CFF0BB030BD00200140B7
:102B0000C00000200100000F000280002DE9F0430A
:102B100087B014216846FDF7D5FB3B48016841F0BA
:102B200010010160016801F010010591016841F098
:102B300080010160016801F080010591016841F0A8
:102B400001010160016801F001010591016841F096
:102B500002010160016801F002010591016841F084
:102B600008010160016801F008010591016841F068
:102B700004010160006841F24906244F002200F080
:102B80000400314605903846FEF789FADFF8808068
:102B9000002279214046FEF782FADFF87890002281
:102BA000F0214846FEF77BFA00240096012569468D
:102BB0003846CDE901540394FEF77CF97920009062
:102BC000CDE90154694640460394FEF773F94FF48A
:102BD00040706946CDE900040F480294FEF76AF997
:102BE0000F206946CDE9000448460294FEF762F9D9
:102BF000F0200090CDE90154694648460394FEF761
:102C000059F907B0BDE8F0833038024000100240A7
:102C100000040240000C02400008024010B58EB0D3
:102C200000241C21009407A80194029403940494A6
:102C300005940694FDF746FB16484FF47A714FF45D
:102C400087624FF08043C0E9024104618461C0E9BA
:102C50000032FFF773F84FF4805000900D4869463A
:102C6000FFF7BEF80B48FFF7CEFA0A4804A9049410
:102C70000694FFF737F86020CDE9070405480022E5
:102C800007A909940B94FFF72AFA0248FFF7E6F91F
:102C90000EB010BD0801002010B58EB000241C211C
:102CA000009407A801940294039404940594069454
:102CB000FDF708FB1648FE2140F23D32134BC0E9F8
:102CC000024104618461C0E90032FFF737F84FF434
:102CD000805000900E486946FFF782F80C48FFF7D5
:102CE00092FA0B4804A904940694FEF7FBFF6020B7
:102CF000CDE907040648002207A909940B94FFF7C1
:102D0000EEF90348FFF7AAF90EB010BD0008004025
:102D10004801002010B588B012480024104941F63F
:102D20003F7242F20F73009401940294039404944E
:102D30000594069480E81600C0E903348461FEF728
:102D4000FDFF4FF48050009006486946FFF748F8B1
:102D5000044804A904940694FEF7C4FF08B010BD0B
:102D6000000C0040880100200A48002130B4084CC3
:102D70000C224FF416530460C0E90131C160C0E970
:102D800004128161C1610162416230BCFFF776BA11
:102D900000140140C8010020FEE770470907002821
:102DA0004FEA116106DA00F00F0000F1E02080F830
:102DB000141D704700F1E02080F800147047704740
:102DC0007047FEF777B9000030B5B7B0342124A8BA
:102DD000FDF778FA142131A8FDF774FA90216846BE
:102DE000FDF770FA1D48016841F0805101600068EC
:102DF00000F0805036901A48016841F4404101606B
:102E000000680123022400F4404036909805042114
:102E1000D822CDE92A402CA81D0480E816002F9462
:102E200024A8CDE92435FEF7A9FDFEF7CDF9E1028E
:102E30004FF4C05031ABCDE934010F22002583E8B7
:102E40003400072131A8FEF793FCA00216950090EC
:102E50006846FEF7EFF937B030BD00004038024059
:102E600000700040104A30B51048146800210F4B24
:102E700044F470041460083305680D4A0D4C45F0A5
:102E80000105056019600368051D1340074A0360CA
:102E90000C322C600568E305034C25F480250560A1
:102EA000803C1160236030BD88ED00E000380240B6
:102EB000FFFFF6FE103000240148FFF710B80000B5
:102EC00088010020F0B5274B4FF0804E264D026858
:102ED0009842264E264F274C09D0704507D0A8426D
:102EE00005D0B04203D0B84201D0A04205D1D1F8FC
:102EF00004C022F070024CEA020298421BD07045D6
:102F000019D0A84217D0B04215D0B84213D0A04271
:102F100011D0194DA8420ED0184DA8420BD0184D13
:102F2000A84208D0174DA84205D0174DA84202D09C
:102F3000164DA84203D1CD6822F440722A434D6950
:102F400022F080022A43026098428A68C2620A68BC
:102F5000826201D0A04201D109690163012141616E
:102F6000F0BD0000000001400004004000080040E7
:102F7000000C0040000401400040014000440140BA
:102F80000048014000180040001C004000200040A4
:102F900010B5046A01238A408B409C430462016A95
:102FA0001143016210BD42EA032283680A4323F4FD
:102FB0007F410A4382607047826822F070020A43B0
:102FC00042F0070181607047F0B5026A164B154F59
:102FD00022F0010298420262066A4268846926F081
:102FE00002068B680D6804EA070424F0030443EA30
:102FF000060345EA040502D00C4CA0420BD1CC6874
:1030000022F44077D1E9056223F008031C433E43D4
:10301000324324F0040342608561496841630362DE
:10302000F0BD00008FFFFEFF0000014000040140E2
:10303000F0B5026A174B164D22F010029842026258
:10304000046A4268836924F020048F680E6803EAEA
:10305000050323F4407544EA071345EA062402D029
:103060000D4DA8420ED1CD6823F08003D1E905674C
:1030700022F4406243EA051342EA860223F0400349
:1030800042EA870242608461496881630362F0BD5D
:10309000FF8FFFFE0000014000040140F0B5026A0E
:1030A000174B164F22F4807298420262056A4368F9
:1030B000C26925F400758E6802EA07020C6822F0E6
:1030C000030745EA062244EA070402D00D4DA84250
:1030D0000ED1CD6822F40062D1E9056723F4405394
:1030E00042EA052243EA061322F4806243EA071308
:1030F0004360C4614968C1630262F0BD8FFFFEFF97
:103100000000014000040140F0B5026A124B114F6B
:1031100022F4805298420262046A4268C36924F42D
:1031200000548E680D6803EA070323F4407344EAF1
:10313000063443EA052302D0084DA84204D14D6964
:1031400022F4804242EA85124260C3614968016408
:103150000462F0BDFF8FFFFE00000140000401404B
:10316000F0B5026ADFF844C022F480320262056AD8
:103170004268446D25F400350E8960450C4F0B689C
:1031800004EA070445EA064543EA040302D0094C71
:10319000A04204D14C6922F4803242EA0422426007
:1031A0004365496881650562F0BD0000000001408B
:1031B0008FFFFEFF00040140F0B5026ADFF844C053
:1031C00022F480120262046A4268436D24F40014FF
:1031D0000E8960450C4F0D6803EA070344EA065464
:1031E00043EA052302D0094DA84204D14D6922F4D7
:1031F000802242EA8522426043654968C1650462D3
:10320000F0BD000000000140FF8FFFFE0004014000
:1032100010B5036A046A23F00A0324F0010404626F
:1032200084690B4324F0F00141EA021181610362D9
:1032300010BD10B5036A23F0100303628369046AAA
:1032400023F4704324F0A00443EA0232826144EA8A
:103250000111016210BD000001480121FDF71BBFF3
:103260000004024090F82410C90706D00168836A60
:103270004A6822F400321A434A6090F82410890701
:1032800006D50168C36A4A6822F480321A434A604C
:1032900090F82410490706D50168036B4A6822F4A8
:1032A00080221A434A6090F82410090706D5016865
:1032B000436B4A6822F400421A434A6090F8241093
:1032C000C90606D50168836B8A6822F480521A43C6
:1032D0008A6090F82410890606D50168C36B8A6855
:1032E00022F400521A438A6090F82410490611D53E
:1032F0000168036C4A6822F480121A434A60016C28
:10330000B1F5801F06D10168436C4A6822F4C002FF
:103310001A434A6090F82410090606D50168826CA9
:10332000486820F4002010434860704738B50025F5
:103330000446C566FDF7B8FE03462068006800072E
:103340000BD56FF07E400090002220464FF4001114
:1033500000F038F908B1032038BD202084F8690056
:1033600084F8685084F86A00002038BD2DE9F047E1
:1033700004468068874B884F2668D4E90415E269C3
:103380000843D6F800C010211543002228431546F3
:103390000CEA030C814B4CEA000CC6F800C04FF459
:1033A00000492068D4F80CC0466826F4405646EA26
:1033B0000C0646602668D4F82080A069D6F808C0BC
:1033C00040EA08002CF4306C4CEA000CC6F808C047
:1033D0002068B8420AD11B6813F0030352D0012BB6
:1033E0007AD0022B76D0032B79D177E06C4EB042A5
:1033F0000AD11B6813F00C036AD0042B6CD0082B85
:1034000068D00C2B6BD169E0664EB0420AD11B68C4
:1034100013F030035CD0102B5ED0202B5AD0302B11
:103420005DD15BE0604EB0420AD11B6813F0C0036F
:103430004ED0402B50D0802B4CD0C02B4FD14DE0E4
:103440005A4EB0420DD11B6813F4407340D0B3F50F
:10345000807F41D0B3F5007F3CD0B3F5407F3ED1B3
:103460003CE0534EB0420FD11B6813F4406309D0C7
:10347000B3F5806F30D0B3F5006F2BD0B3F5406F4C
:103480002DD12BE001212AE04A4EB0420DD11B681C
:1034900013F440531CD0B3F5805F1DD0B3F5005F2B
:1034A00018D0B3F5405F1AD118E0434EB04216D1A0
:1034B0001B6813F440430BD0B3F5804F0CD04B4541
:1034C00008D0B3F5404F0AD108E005E002E0FFE77D
:1034D000002104E0022102E0042100E00821E66965
:1034E0004E452AD109291FD2DFE801F00508141E34
:1034F000171E1E1E1A00FEF7F1F901E0FEF7FEF995
:103500000146D4F80400490001EB5001B1FBF0F092
:1035100082B20AE029496068F6E7FEF7FFF9EFE7B3
:1035200060684FF48031EFE70125216822F00F0039
:10353000C2F342021043C86028E0092925D2DFE81F
:1035400001F005080B24102424241C00FEF7C6F902
:1035500009E0FEF7D3F906E06168194A02EB51026F
:103560000EE0FEF7DBF90146D4E9002001EB500143
:10357000B1FBF0F080B2D06008E0616809EB510265
:10358000B2FBF1F189B2C16000E001252846BDE837
:10359000F0870000F369FFEF00100140903802400F
:1035A0000044004000480040004C004000500040F3
:1035B0000014014000780040007C00400048E80111
:1035C0000024F4002DE9F041984617460E460446C3
:1035D000069D1DE0681C1BD02DB1FDF765FDA0EB1D
:1035E0000800A84214D32168202000220B6823F48D
:1035F000D0730B6021688B6823F001038B6084F823
:10360000690084F86A00032084F86820BDE8F0812E
:103610002068C06936EA000004D00020B842D9D042
:103620000020F3E70120F9E7FEE700000FB4084BA4
:1036300010B504A902AA039800F0DEF8044602A916
:10364000002000F070FC204610BC5DF814FB000068
:10365000273F000802E008C8121F08C1002AFAD15B
:1036600070477047002001E001C1121F002AFBD102
:10367000704700002DE9FF5F82B00021DDE90430D2
:10368000020DDDF840B0034318D044F61050A2F20A
:10369000FF3242431514119801281FD0A5EB0B00EF
:1036A000401C5FEA000A4FF000064E4FDFF83891E9
:1036B000B046504615D5CAF1000413E01198012414
:1036C0004AA3012801D16FEA0B010298119AC0E9BF
:1036D0000031C0E9024206B0BDE8F09FCBF1000026
:1036E000DFE704460021404A491842EB0450CDE987
:1036F000001012E0E00707D032463B4640464946FC
:10370000FCF7C7FE8046894632463B4610461946BE
:10371000FCF7BFFE06460F466410002CEAD1DDE937
:103720000401DDE90023BAF1000F06DAFCF7B1FE6F
:1037300042464B46FCF7ADFE05E0FCF71CFF424657
:103740004B46FCF718FF04460E460022284BFCF7B8
:1037500099FF03D84FF0FF30014607E00022254BC8
:1037600020463146FCF7EEFDFCF774FF102409E01B
:10377000002C0ADB0A220023FCF75AFD039B30329F
:103780001A55641E50EA0102F2D1641C039AC4F176
:1037900011031444119A012A03D0012208430DD1C8
:1037A0000AE0084304D000204FF0110B119072E79B
:1037B000A3EB0B056D1E0DE05B4504DD4FF0000231
:1037C00005F1010504E003DA4FF00002A5F101055F
:1037D000002AECD002981199C0E90231C0E90045F5
:1037E00079E70000000014400000F03F30000000C6
:1037F0000000F0430000E03F2DE9FF4F95B09B46ED
:103800008946064600250FE2252877D10024274661
:10381000F84A0121059400E0044316F8013F203BDB
:1038200001FA03F01042F7D130782A2811D06FF056
:103830002F033078A0F13002092A16D8059A44F0F7
:10384000020402EB820203EB42021044761C059054
:10385000EFE759F8042B0592002A03DA504244F4AA
:103860000054059044F00204761C30782E2816D1BE
:1038700016F8010F44F004042A280DD06FF02F022F
:103880003078A0F13003092B09D807EB870302EB4E
:103890004303C718761CF3E759F8047B761C30788D
:1038A0006C280FD006DC4C2817D068280DD06A2869
:1038B00014D104E0742810D07A280FD10DE044F41C
:1038C00000140AE044F4801401E044F440147278D7
:1038D000824202D104F58014761C761C307866286A
:1038E0000BD013DC582877D009DC002875D0452888
:1038F000F6D04628F4D047281AD19DE118E0632875
:1039000035D0642879D0652812D195E1702873D01C
:1039100008DC6728F1D069286FD06E280DD06F2899
:1039200006D1B5E073282CD0752875D0782874D0CE
:103930005A46179990476D1C75E1C4F3025002284E
:1039400009D003280DD0D9F8001004280DD00D603F
:1039500009F1040967E1D9F80010EA17C1E900523A
:10396000F6E7D9F800100D80F2E70D70F0E719F8CE
:10397000041B8DF8001000208DF80100EA4601209C
:1039800003E059F804AB4FF0FF3061074FF000013E
:1039900002D40DE008F101018846B9420FDA8045F2
:1039A000F8DB1AF808100029F4D108E008F1010149
:1039B00088468142FADB1AF808100029F6D10598EA
:1039C0005B46A0EB080721463846179A00F094FAA8
:1039D000284400EB080507E04DE029E10DE01AF866
:1039E000010B5A4617999047B8F10108F7D25B4688
:1039F00021463846179A13E142E00A220092C4F3A6
:103A000002524FF0000A022A08D059F804CB032AC8
:103A10004FEAEC710AD00DE029E02AE009F1070134
:103A200021F00702F2E802C1914609E00FFA8CFC8E
:103A30004FEAEC71042A03D14FFA8CFC4FEAEC7187
:103A4000002907DA0A460021DCF1000C61EB0201D3
:103A50002D2202E0220504D52B228DF8042001221C
:103A600003E0E20701D02022F7E7904659E00A215F
:103A700002E010220DE010214FF0000A00910BE04F
:103A800010224FF0000A44F004040827009203E0DB
:103A900008224FF0000A0092C4F30252022A05D015
:103AA00059F804CB0021032A08D009E009F10701E5
:103AB00021F00702F2E802C1914605E01FFA8CFCF2
:103AC000042A01D10CF0FF0C4FF00008220728D582
:103AD000702806D0009B83F0100353EA0A0305D038
:103AE0000EE040228DF80420012208E05CEA010289
:103AF00006D030228DF804208DF805000222904671
:103B0000009B83F0080353EA0A030AD15CEA01022E
:103B100001D1620705D530228DF804204FF001084D
:103B20007F1E582804D034A003900EA802900DE008
:103B300036A0F9E753466046009AFCF779FB8446C5
:103B40000398825C0298401E029002705CEA0100B9
:103B5000F0D1029806A9081A00F1200A600702D5E0
:103B600024F4803400E00127574502DDA7EB0A006A
:103B700000E0002000EB0A01009005984144401A43
:103B80000590E00306D45B462146179A059800F09D
:103B9000B3F90544002706E001A85A46C05D17990D
:103BA00090476D1C7F1C4745F6DBE0030CD55B4658
:103BB0002146179A059800F09FF9054404E030204B
:103BC0005A46179990476D1C0099481E009000298D
:103BD000F5DC08E0029802995A460078491C0291E7
:103BE000179990476D1CBAF10001AAF1010AF1DCA6
:103BF00065E10000092801003031323334353637B1
:103C00003839616263646566000000003031323328
:103C100034353637383941424344454600000000C8
:103C200000F058F90544761C307800287FF4ECAD9C
:103C300019B02846BDE8F08F620700D4062709F1C5
:103C4000070222F0070CFCE80223E14603F00048DB
:103C50005FEA080C02D00FF2702C0DE05FEA045C02
:103C600002D50FF2682C07E05FEAC47C02D00FF2A5
:103C7000602C01E0AFF2700C4FF0FF3823F00043EE
:103C8000CDF850C065280CD006DC452809D0462860
:103C90001DD047283DD13DE0662818D067287ED149
:103CA00038E00021112F01DB112000E0781CCDE964
:103CB000000106A90EA8FFF7DDFCDDE90F010E9A51
:103CC00003910021009207F1010A04914DE04FF0A9
:103CD00000400097CDE9011006A90EA8FFF7CAFC25
:103CE000DDE90F0203920E9B11990022DDF80CA072
:103CF0000093049211B9791C00EB010AB7EB0A009A
:103D000004D4C0F1FF3007F1010A0490AAEB0700C8
:103D1000019044E0012F00DA01270021112F01DD7D
:103D2000112000E03846CDE9000106A90EA8FFF7F2
:103D3000A1FCDDE90F010E9A03910021049100928C
:103D4000BA4621070CD40399514500DA8A46BAF1E4
:103D5000010F05DD009AAAF10101515C302908D05C
:103D6000B84202DA10F1040F06DA0121CDE90110A0
:103D700015E0AAF10101E9E7002805DC04990144F6
:103D80000491AAEB000102E0411C514500DD8A4686
:103D90000499401A401C01904FF000400290200707
:103DA00004D40198504501DBCDF8048000208DF843
:103DB0004F0002980DF14F07B0F1004F25D02B2096
:103DC0000E9002984FF0020800280CDA4042029050
:103DD0002D200E9007E00A210298FCF77EFA303180
:103DE000029007F8011DB8F10001A8F10108F2DC0A
:103DF00002980028EFD1791E0E980870307800F0F4
:103E0000200040F0450007F8020D12A8C01B00F189
:103E100007081498007800B1012000EB0A0101980E
:103E200001EBE07105984144401A401E0590E00303
:103E300006D45B462146179A059800F05DF80544C4
:103E40001498007818B15A46179990476D1CE003F2
:103E500024D55B462146179A059800F04DF8054495
:103E60001CE00498002807DBDDE90301884203DD3C
:103E70000098405C179901E0179930205A46904706
:103E8000049805F10105401C04900198401E019022
:103E900004D12E205A46179990476D1CBAF10001A3
:103EA000AAF1010ADDDC05E017F8010B5A46179963
:103EB00090476D1CB8F10001A8F10108F4DC5B46E5
:103EC0002146179A0598ABE62D0000002B00000054
:103ED000200000002DE9F041044600251E4617464B
:103EE000880404D405E039462020B0476D1C641EC8
:103EF000F9D52846BDE8F0812DE9F04104460025BA
:103F00001E469046C80301D5302700E020278804CC
:103F100004D505E041463846B0476D1C641EF9D50E
:103F20002846BDE8F0810A68531C0B60107070478A
:103F300070B5254C5FF00002012350F8225051F873
:103F40002260B54203D1521C92B2032AF4D9042A4A
:103F50004FF0000523701FD0FEF7D4FC0121084666
:103F6000FEF7ECFC19A0FEF7D6FC0121E58102204A
:103F7000FEF7E4FC18A0FEF7CEFC40F2DC50FCF7A4
:103F800087FFFEF7BFFC17A0FEF7C5FC012102204A
:103F9000FEF7D4FCA58070BDFEF7B4FC01210846F5
:103FA000FEF7CCFC13A0FEF7B6FC1748258200688C
:103FB000456301210220FEF7C1FC14A0FEF7ABFC13
:103FC000A5800120E08170BD68000020496E636F0C
:103FD00072726563740000005472792041676169F0
:103FE0006E212100456E746572204B65793A202060
:103FF00000000000436F7272656374205061737338
:10400000636F646500000000480100204163636540
:104010007373204772616E74656421210000000093
:1040200001484188418270476800002090B0FDF748
:1040300049F8FEF7C9FEFEF769FDFEF72DFDFEF714
:10404000EDFDFEF729FEFEF78FFEFEF763FEA048AA
:104050000121049004230590102607904FF040089A
:1040600008900222099008240A90202706908025B3
:10407000ADF83010ADF83430ADF83860ADF83C80B4
:104080000B9004A8ADF83220ADF83640ADF83A7088
:10409000ADF83E50FEF7AAFA8E4D62028DE8D001CF
:1040A0008D4801212B46FEF763FB8C480021FEF76B
:1040B000C7F88BA0FEF72FFC8D4C2079401CC1B2B5
:1040C0000220FEF73BFC854800214030FEF7B8F89F
:1040D000884E4FF4FA7BDFF804A2A94606F1640784
:1040E000844932225D46A1F190005B46FEF72EF92D
:1040F00030786F284BD17078742848D1B078702808
:1041000045D1FFF78DFF7B487BA1628A3230FFF7F4
:104110008DFA784982B22B463231A1F1C200FEF706
:1041200089F9744875A13230FFF780FA714982B27B
:104130002B463231A1F1C200FEF77CF931213170FA
:10414000618A0A206423DFF8ACE1B1FBF0FCB1FB2B
:10415000F0F2B1FBF3F34FF47A75B1FBF5F5AEF184
:10416000200E00FB1C11B2FBF0FCB3FBF0F8303169
:1041700000FB1C22B5FBF0FC00FB1833303300FBC6
:104180001C5030303032CEE90003CEE902215348D2
:104190004838FCF721FE514864214838FCF7CCFD33
:1041A0004E484838FCF798FC20816420FCF770FEEC
:1041B00001214D464846FCF769FF40B146480122BF
:1041C0000821FCF76CFFDAF8001019204863012180
:1041D0002846FCF75BFF40B93F4800220821FCF766
:1041E0005EFFDAF800103C2048634FF48071444DC4
:1041F0002846FCF74BFF18B1E08908B9012020825E
:104200004FF400712846FCF741FF18B1E08908B966
:1042100001202082304801224021FCF740FF208A03
:1042200010B1012805D009E02C4840300168002079
:1042300003E02A4840300168C82048632D486430B4
:10424000FEF714FA0025785D012822D1A088042801
:104250001FD2E089012806D12846FEF7C1F900786F
:1042600060612A281DD02846FEF7BAF9214BA188A3
:10427000103B0278481C43F82120A0802846FEF716
:10428000AFF9FEF748FB2079401CC1B20220FEF7CF
:1042900055FB6D1CEDB2102DD5D3A08804280DD090
:1042A00012E0BFF34F8F1748174A016801F4E0612D
:1042B00011430160BFF34F8F00BFFDE70D49203967
:1042C00001F11000FFF734FE6420FCF7E1FD07E781
:1042D000000C0240000402400010024008010020CF
:1042E000456E746572204B65793A2020000000000D
:1042F0006800002058020020256400000A00000029
:10430000000802400CED00E00400FA050000000087
:104310000000000001020304060708090000000075
:1043200001020304230000002A0000003000000006
:1043300031000000320000003300000034000000B3
:104340003500000036000000370000003800000093
:10435000390000004100000042000000430000005E
:10436000440000008443000800000020900000008A
:104370005436000814440008900000204006000055
:104380006436000800000000304300083443000891
:1043900038430008544300083C43000840430008E9
:1043A0004443000858430008484300084C430008B1
:1043B000504300085C430008284300082C430008D1
:1043C0002443000860430008010F3800000000008B
:1043D00000000000000000000000000000000000DD
:1043E0000000000000000000000000000000C111FB
:1043F00000000000000000000000000000000000BD
:10440000000000000100000010000000000000009B
:044410000024F40090
:04000005080001F9F5
:00000001FF
